:1000000072EF1DF068961200046ED8CF05F0E0CFB5
:1000100006F00001E9CF0CF0EACF07F0E1CF08F0DD
:10002000E2CF09F0D9CF0AF0DACF0BF0F3CF12F01C
:10003000F4CF13F0FACF14F000C00EF001C00FF0AF
:1000400002C010F003C011F09DAA2AEF00F09EBA82
:1000500026EF08F0A0AA30EF00F0A1BA9AEF07F05F
:100060000EC000F00FC001F010C002F011C003F08C
:100070000CC0E9FF07C0EAFF078E08C0E1FF09C016
:10008000E2FF0AC0D9FF0BC0DAFF12C0F3FF13C0B2
:10009000F4FF14C0FAFF045006C0E0FF05C0D8FF0B
:1000A0001000F2CF0DF0F29EF76ABC0FF66E000E54
:1000B000F7220900F5500DBEF28E12005053524641
:1000C0003130332C30302C30302C30302C3031006B
:1000D000F2CF0DF0F29EF76AEA0FF66E000EF722ED
:1000E0000900F5500DBEF28E1200505352463130C9
:1000F000332C30302C30312C30302C303100F2CFDA
:100100000DF0F29EF76A180FF66E010EF722090045
:10011000F5500DBEF28E12002447504747410000B3
:10012000F76A300FF66E010EF7220900F550120043
:100130000002FFFFFFFFFFFFFFFFFFFFFFFFFFFFCB
:1001400007AE03D0F2CF0DF0F29EF76A620FF66EA3
:10015000010EF7220900F55007AE02D00DBEF28E57
:10016000120040002000000000000000000000001D
:10017000000000000000000000000000000000007F
:100180000000F76A920FF66E010EF7220900F55093
:10019000120009022000010100C03209040000021F
:1001A000FFFFFF0007058102200001070501022073
:1001B0000001F76AC20FF66E010EF7220900F55032
:1001C00012000100F76AD40FF66E010EF722090043
:1001D000F550120012011001000000407707845012
:1001E000020001020001F76AF60FF66E010EF72217
:1001F0000900F550120000040E00F76A0A0FF66EAF
:10020000020EF7220900F5501200040309040A0344
:1002100045004D004E005400280345004D004E009F
:10022000540020004700500053002F0047005300A7
:100230004D002000530079007300740065006D00CC
:1002400041540D0A00004154205049432D3E53496A
:100250004D0D0A004154204F4B0D0A0041542B49CB
:1002600050523D393630300D0A0041542B43504234
:10027000533D22534D220A0D000041542B434D475C
:10028000463D310D0A0041542B434D47443D310D4D
:100290000A0041542B434E4D493D332C310D0A0089
:1002A000415445300D0A000041542B434C49503D08
:1002B000310D0A0041542B434D47533D25690D0A2A
:1002C000000030373931393437313031363730305A
:1002D00030300000313133430000303030304138AD
:1002E000000041542B434D47463D310D0A00415417
:1002F0002B434D47533D222573220D0A00002573E1
:10030000203A20002563203A200041544425733BC5
:100310000D0A00004E6F206F6B0D0A006275666655
:1003200065723D25632563256325630D0A004275CB
:100330007379207374617475730D0A004E6F2063B6
:10034000617272207374617475732025632563254F
:100350006325630D0A004765742053706565640D5D
:100360000A004765742054696D650D0A00006D73BD
:10037000673D25730D0A000047657420506F73694F
:1003800074696F6E0D0A000047657420506F7369C1
:1003900074696F6E0D0A00006D73673D25730D0A59
:1003A000000041542B435042523D25640D0A000089
:1003B00041542B434D47523D310D0A0041542B43CC
:1003C0004D47443D310D0A0025730D0A536F6C648F
:1003D0003D20256C642044410D0A00004750532005
:1003E00047455420504F53006D92699468A402D041
:1003F0006894FCD7A9EF07F0400E0401016F040ECA
:10040000036F100E026F880E006F046B040E076FEF
:10041000500E066F0001120070A002D0EDDF709048
:10042000689AB3EF07F06A6A6892BBEF07F00301BE
:10043000BA91B9BFBA81B99FB951100803E2000E51
:10044000016E24D0BAA112D0036AB951F2CFBBF326
:10045000F29E000165DE0301BBBFF28EFF0802E1E0
:10046000000E01D0010E016E11D010D0036AB951F7
:10047000F2CFBBF3F29E000153DE0301BBBFF28E4D
:10048000FF0802E1000E01D0010E016E0001120012
:10049000036A0301B851700FE96E0F0E0320EA6E74
:1004A000EF6AB8C3B9F30001C2DF01521AE00301D9
:1004B000B851080DF350BA6BE96E040EBA25EA6E16
:1004C000EF6AB851080DF350BA6BB96F040EB92733
:1004D000000EBA23B9C3E9FF040EBA25EA6EEF6A2B
:1004E00000011200010E0301B76FB7510F0807E3B7
:1004F000B7C3B8F30001CCDF0301B72BF6D7000177
:1005000012000201CA6BC96B0301AD6BAD530AE166
:10051000036AAD51CB0FE96E020E0320EA6EEF6A5B
:10052000AD2BF4D70201C06B010EC16FBF6B000190
:1005300012006A6A686A9F0E6B6E3D0E696E6E6A83
:10054000D1DFDFDF160E706E68A602D05BDDFCD750
:100550006D9852DF030E0201C46F0001C3EF07F074
:10056000698468986D82CBEF07F0689CD3EF07F041
:10057000B2C3C5F212000201C569000112000301F5
:10058000B06B0201C951CA1152E00301B0513F08DA
:10059000D8B002D002014BD00201C251000A0001C2
:1005A00005E0020A12E0010A1FE02CD0C8C203F0E5
:1005B0000201C751F2CFB2F3F29E0001E2DD030166
:1005C000B2BFF28EB16F00011DD0C8C203F00201AC
:1005D000C751F2CFB2F3F29E00010FDE0301B2BFAA
:1005E000F28EB16F00010ED0C8C203F00201C751F4
:1005F000F2CFB2F3F29E0001E5DD0301B2BFF28E4D
:10060000B16F00010201C72BD8B4C82BC951D8B4AF
:10061000CA07C9070301B051B02B036A500FE96E36
:10062000040E0320EA6EB1C3EFFFABD70201C9513C
:10063000CA1109E10301B0514008D8A402D0020157
:1006400002D00201BF6BB0C3B2F3000191DF120010
:100650000201C86BC76BC26B04011351010A000190
:1006600005E0030A0AE0010A0DE033D00201CA6B7B
:10067000120EC96F030EC26F2FD00201CA6B200E7B
:10068000C96F2AD0020E0201C26F036A040112511F
:10069000F2CFAFF3F29E0001A6DD0301AFBFF28EF1
:1006A000036AE8CFC7F2020103C0C8F2C8C203F070
:1006B000C751F2CFAFF3F29E00019FDD0301AFBF40
:1006C000F28E036AE8CFC9F2020103C0CAF204D075
:1006D000000151DF15D00201040117530CE10201A2
:1006E000CA5305E1C9510401165D05E20201CA6B56
:1006F00016C4C9F20401010E0201BF6F00013FDF01
:10070000CFEF04F00301AF5307E1040E0201C46F01
:100710000001E8DEE2D00301050E0201C46F040E01
:100720000301B26F900EB16F010EB06FB0510F08A0
:10073000D8A0D3D0B0C3B8F30001AADE0301B36BD5
:10074000036AB051F2CFB7F3F29E0001E9DC030176
:10075000B7BFF28EFF085DE0040EB36FD890B035DE
:10076000036AF2CFB7F3F29E0001EADC0900F5CF8D
:1007700003F00301B7BFF28EB46F03C0B5F3B051FD
:10078000080DF350B86BB76F010EB725016E000E60
:10079000B821036E01C0E9FF040E0324EA6EB4C35E
:1007A000EFFFB051080DF350B86BB76F020EB725CD
:1007B000016E000EB821036E01C0E9FF040E032490
:1007C000EA6EB2C3ECFFED52B1C3EFFFD890B03583
:1007D000036AF2CFB7F3F29E0001B2DC0900F5CF55
:1007E00003F00301B7BFF28EB1270350B223880E86
:1007F000B66FB5A101D0B681B5A301D0B683B05113
:10080000080DF350B86BE96E040EB825EA6EB6C356
:10081000EFFF036AB051F2CFB7F3F29E000180DC24
:100820000301B7BFF28EFF083BE0B383B051080D60
:10083000F350B86BB76F040EB727000EB823020E43
:10084000B725016E000EB821036E01C0E9FF040E4A
:100850000324EA6EB2C3ECFFED52B1C3EFFFD890B0
:10086000B035036AF2CFB7F3F29E000169DC0900EC
:10087000F5CF03F00301B7BFF28EB1270350B223C7
:10088000B051080DF350B86BB76F040EB727000EC8
:10089000B823B7C3E9FF040EB825EA6E400EEF6E29
:1008A000B351060802E10E0EB36F036AB051F2CFE6
:1008B000B7F3F29E000134DC0301B7BFF28E0108EA
:1008C00001E0B389036AB051700FE96E0F0E032087
:1008D000EA6EB3C3EFFFB02B29D70001C7EF04F0D6
:1008E00004011151000A00010DE0010A15E0020A9D
:1008F00022E0060A2EE0030A36E00E0A36E0010A7C
:100900003CE04CD0C1C250F40401516B020E030113
:10091000B26F00012DDE43D00401122D09D0010E6B
:100920000201C1170301B26B000122DE03D00401F2
:10093000000121DE34D00401122D08D00201C18350
:100940000301B26B000114DE03D00401000113DEC9
:1009500026D0020E0201BF6F12C4C6F20301B26BB1
:10096000000106DE1CD074D61AD0C0C250F4010EAD
:100970000301B26F0001FCDD12D004011251010825
:100980000BE312C4C0F212C4AFF30001BBD60301E3
:10099000B26B0001EDDD0401000101D0ECDDE7EFF9
:1009A00005F0C0C2AFF304011151000A000105E0D7
:1009B0000A0A0CE0010A33E048D00401506B516B85
:1009C000020E0301B26F0001D3DD40D00301AF532B
:1009D00023E0010EAF5D036AF2CFB0F3F29E000197
:1009E000D9EC00F00301B0BFF28E016E0401145D7A
:1009F000D8A002D0030110D0036A1451CB0FE96EC6
:100A0000020E0320EA6EEFCF50F4010E0301B26F25
:100A10000001AEDD03D003010001ADDD17D00301FD
:100A2000AF5310E0036A04011451CB0FE96E020EBC
:100A30000320EA6E12C4EFFF0301B26B000198DDE0
:100A400003D00301000197DD01D095DDE7EF05F04C
:100A50000301B091AFBFB081AF9FB0A111D0AF5132
:100A6000080DF350B26BB16F040EB127000EB22324
:100A7000B1C3E9FF040EB225EA6E880EEF6E09D00D
:100A8000AF51080DF350B26BE96E040EB225EA6E59
:100A9000EF6A0001B0EF05F00301B091AFBFB08184
:100AA000AF9FB0A111D0AF51080DF350B26BB16F31
:100AB000040EB127000EB223B1C3E9FF040EB22524
:100AC000EA6E840EEF6E0AD0AF51080DF350B26B90
:100AD000E96E040EB225EA6E840EEF6E0001B8EFE7
:100AE00005F00301B091AFBFB081AF9FB0A111D0AD
:100AF000AF51080DF350B36BB26F040EB227000E66
:100B0000B323B2C3E9FF040EB325EA6EEFCFB1F30E
:100B10000AD0AF51080DF350B36BE96E040EB32544
:100B2000EA6EEFCFB1F3B1AF02D0B1B502D0000E93
:100B300001D0010E016E0001C4EF05F014C4B9F339
:100B400076DC01522EE004011151010A000105E09A
:100B5000020A0BE0030A11E023D014C4AFF378D7E4
:100B60000301B26B000104DD1CD014C4AFF394D7B1
:100B70000301B26B0001FCDC14D00401506B516B1B
:100B800014C4AFF30001ADD7015204E0010E04011B
:100B9000506F0001020E0301B26F0001E9DC01D0C9
:100BA000EADCE7EF05F00201BF6B040110517F0B97
:100BB000000A000105E0010A05E0030A05E006D08D
:100BC0008FD605D0EED603D0B9D701D0D4DC31EF23
:100BD00007F00301AF51080DF350B56BE96E040E39
:100BE000B525EA6EEFCFB1F3B051020806E1B1AD21
:100BF00002D0B06B02D0010EB06FB051030813E108
:100C0000840EB16FAF51080DF350B56BB46F040E85
:100C1000B427000EB523B4C3E9FF040EB525EA6E70
:100C2000840EEF6E07D0B02D03D0C80EB16F02D086
:100C3000880EB16FD890AF35036AF2CFB4F3F29E4D
:100C40000001A0EC00F00900F5CF03F00301B4BFF0
:100C5000F28EB26F03C0B3F3AF51080DF350B56B12
:100C6000B46F010EB425016E000EB521036E01C0F4
:100C7000E9FF040E0324EA6EB2C3EFFFB3A101D073
:100C8000B181B3A301D0B183AF51080DF350B56B5F
:100C9000E96E040EB525EA6EB1C3EFFF0001120044
:100CA000036A0301B451700FE96E0F0E0320EA6E60
:100CB000EF5212E0B451080DF350B66BB56F040E4D
:100CC000B527000EB623B5C3E9FF040EB625EA6EBC
:100CD000EFCFB7F3B7AF02D0000E01D0010E016E17
:100CE00000011200AFC3B4F3DBDF015265E0030182
:100CF000AF51080DF350B56BB46F040EB427000E5E
:100D0000B523010EB425016E000EB521036E01C09E
:100D1000E9FF040E0324EA6EB0C3EFFFB2510208EC
:100D200017E1AF51080DF350B56BB46F040EB42743
:100D3000000EB523B4C3E9FF040EB525EA6EEFCF6C
:100D4000B3F3B3AD02D0B26B02D0010EB26F13D0C9
:100D5000B251040810E1AF51080DF350B56BE96EC4
:100D6000040EB525EA6EEFCFB3F3B3AD03D0010E99
:100D7000B26F01D0B26BB22D03D0C80EB36F02D0E8
:100D8000880EB36FB1A101D0B381B1A301D0B383F9
:100D9000AF51080DF350B56BB46F040EB427000EBD
:100DA000B523B4C3E9FF040EB525EA6EB3C3EFFF64
:100DB000010E016E04D00001000E016E030100015E
:100DC00012000301AF5300E100011200B0C36EFF37
:100DD0000301B05305E0040E0201C46F04D0030107
:100DE000020E0201C46F0001FDEF06F00201C06BAC
:100DF000BF6BC6C2B0F30001E9D70FEF07F00301E4
:100E0000AF530FE10201BF2D05D00001BFEC02F08E
:100E100006D00201BF51020803E10001E7D7020139
:100E20000301000112000201C3310301AD6FAD33B4
:100E3000AD331F0EAD170201C35355E1040100513C
:100E40003C0B0301AE6F430E040100170301AE51CA
:100E5000340829E104010451800B01E0046B000116
:100E6000A2D66D980201C53D08D00301AF6B030EF9
:100E7000B06F0001AEDE14D002010301AF6B020EB1
:100E8000B06F0001A6DE0201C551FE080AE00301B1
:100E9000AF6BB16BC5C2B0F3040EB26F000122DFBD
:100EA00002011ED00301AE5104081BE1AF6B00012B
:100EB00088DF0301AF6B020EB06F00018ADE020112
:100EC000C551FE080DE0C53D01D00AD00301AF6B4E
:100ED000B16BC5C2B0F3010EB26F000103DF0201B6
:100EE000030125D00201C351040814E1C5690301BF
:100EF000AF6B000184DF0201C53D01D00AD00301C0
:100F0000AF6BB16BC5C2B0F3020EB26F0001EADE87
:100F100002010CD0C3B506D0ADC3AFF3000151DF61
:100F200005D00201ADC3AFF3000169DF0301000189
:100F3000E0EF07F0A19A0201C453D8B44BD0685235
:100F4000D8B448D068A406D069A404D00001F4EF56
:100F500001F002016DB23ED068AA06D069AA04D0A1
:100F600000010CEF02F0020168A206D069A204D0D1
:100F7000000113EF02F0020168A006D069A004D0BE
:100F8000000199EF02F0020168A806D069A804D018
:100F90000001B0EF02F0020168AC06D069AC04D0E9
:100FA0000001B5EF02F002010301AC6B68A60AD0A4
:100FB00069A608D06CCFC3F2000102EC00F033D771
:100FC00003D0030106D000010301AC51AC2B030890
:100FD000EDE20201000130EF00F093908A80080EEC
:100FE000016E00D00000018E10D0019E0301AE33CF
:100FF0000001D8B08A90D8A08A80018C06D0019CCC
:10100000012EF4D700D000008A90010E006EE96A2C
:10101000E92EFED7002EFBD7990EE96EE92EFED7FA
:10102000000001BEE2D701BCEAD712000900F55268
:101030000CE0F6CFACF3F7CFADF3F5CFAEF3CDDFE9
:10104000ACC3F6FFADC3F7FFF1D712000101BE6BD1
:101050009EAAFED7AECF56F3030156510A08D8A474
:10106000D5D057510D08D8A4D1D000019E53D8A493
:1010700002D00301CBD01C504F0803E11D504B0898
:1010800006E01D504F0806E11E504B0803E19F8704
:10109000E283B7D0DE53D8A47DD0010EEA6EC80E2D
:1010A000E96EE26A1C0EE16EE752E6CFEEFFFCE16C
:1010B0009EC054F30201A56B00019E510201A55D83
:1010C00067E2036AA5511C0FE96E000E0320EA6E69
:1010D000EF502B085BE1020EA525036A1C0FE96E99
:1010E000000E0320EA6EEF504D0811E1030EA52516
:1010F000036A1C0FE96E000E0320EA6EEF505408DD
:1011000006E1010E0001DE6F9F890201706B020E85
:10111000A525036A1C0FE96E000E0320EA6EEF504E
:10112000550812E1030EA525036A1C0FE96E000E97
:101130000320EA6EEF50530807E10001A0A103D09D
:101140009F8F9EC0A6F20201010EA525036A1C0F07
:10115000E96E000E0320EA6EEF50430817E1020E1D
:10116000A525036A1C0FE96E000E0320EA6EEF50FE
:101170004C080CE1640EF66E120EF76E000156DF9D
:10118000E15302E09F8101D0E12B0201A52B94D70E
:1011900032D00001DE2D11D09EC0DFF0020EEA6ECB
:1011A000280EE96EE26A1C0EE16EE752E6CFEEFF12
:1011B000FCE1020EDE6F9F891DD0DE5102080FE1B7
:1011C000020EEA6E080EE96EE26A1C0EE16EE7524C
:1011D000E6CFEEFFFCE1030EDE6F9F890BD01C50C3
:1011E000420808E11D50550805E17C0E0301AE6F71
:1011F0000001F3DE020100019F97010E0101BE6FA5
:1012000000019E6B9F839F8528D0030156510D08D6
:1012100003E10D0E576F22D056513E080AE1010E30
:101220000001DD6F2D0E0301AE6F0001D6DE15D07B
:101230000301036A00019E511C0FE96E000E03209A
:10124000EA6E56C3EFFF9E2B036A9E511C0FE96E98
:10125000000E0320EA6EEF6A9F9503019E9A00013B
:1012600030EF00F052494E470D0A0000454E564FF0
:10127000594552204C45204D455353414745206127
:1012800075204EB03D25730D0A00783D2573203B37
:1012900020793D2573200A0D000041542B434D4712
:1012A000533D222573220D0A0000416C657274655E
:1012B000203A204F757665727475726520446573A7
:1012C00020506F7274657320647520566568696379
:1012D000756C6520E0206C6120506F736974696FD4
:1012E0006E203A0D0A00506F733D25732025730D53
:1012F0000A00566F757320506F7576657A204C6FB3
:1013000063616C6973657220566F747265205665EF
:10131000686963756C652056696120687474703AF9
:101320002F2F6D6170732E676F6F676C652E636F03
:101330006D0D0A00416C65727465203A204F757618
:10134000657274757265204475204361706F7420F6
:101350006475205665686963756C6520E0206C6172
:1013600020506F736974696F6E203A0D0A00506FD8
:10137000733D25732025730D0A00566F7573205039
:101380006F7576657A204C6F63616C697365722046
:10139000566F747265205665686963756C65205672
:1013A000696120687474703A2F2F6D6170732E67B5
:1013B0006F6F676C652E636F6D0D0A00416C65720F
:1013C0007465203A20566F747265205665686963AB
:1013D000756C6520E020E974E920546F75636865D9
:1013E0007220E0206C6120506F736974696F6E2009
:1013F0003A0D0A00506F733D25732025730D0A00C6
:10140000566F757320506F7576657A204C6F6361E7
:101410006C6973657220566F7472652056656869D1
:1014200063756C652056696120687474703A2F2F5B
:101430006D6170732E676F6F676C652E636F6D0DD6
:101440000A00416C65727465203A204172726574BD
:10145000206475205665686963756C6520636F6DDF
:101460006D616E6465722070617220736D7320E02F
:10147000206C6120506F736974696F6E203A0D0A99
:101480000000506F733D25732025730D0A00566FC1
:10149000757320506F7576657A204C6F63616C6947
:1014A00073657220566F747265205665686963753E
:1014B0006C652056696120687474703A2F2F6D61D5
:1014C00070732E676F6F676C652E636F6D0D0A000A
:1014D000416C65727465203A204C6520536F6C64D2
:1014E0006520646520566F747265205075636520B1
:1014F0006427416C61726D652065737420656E2090
:10150000646573736F757320647520536F6C6465C5
:10151000204D696E696D756D203A00005061732031
:101520004427616C65727465203A56656869637515
:101530006C6520E0206C6120506F736974696F6E78
:10154000203A0D0A0000506F733D25732025730D5E
:101550000A00566F757320506F7576657A204C6F50
:1015600063616C6973657220566F7472652056658D
:10157000686963756C652056696120687474703A97
:101580002F2F6D6170732E676F6F676C652E636FA1
:101590006D0D0A00424950206175204EB03D257303
:1015A0000D0A0000206C65204EB03D257320657348
:1015B0007420686F7273206368616D700D0A00009B
:1015C000454D4E54204750532073797374656D0D0B
:1015D0000A005768696C650D0A0041524D3D310D96
:1015E0000A0041524D3D300D0A002D616C303D2501
:1015F000640D0A00416C61726D65206D65737361E5
:101600006765200D0A004E657720536F6C640A0DE4
:10161000000041542B434D47533D220077616974CC
:10162000206F6B0A0D0077616974206E6F0A0D00E0
:1016300041542B434D47523D310D0A004E657720F2
:10164000536D730A0D00534D532054656C204E3D6D
:1016500025730A0D0000534D53206D73673D2573AC
:101660000A0D0000476F6F64207061737320776FFD
:1016700072640D0A00004172726574206465206D09
:101680006F746575722061766563206C696D69742D
:101690006174696F6E206465207669746573736523
:1016A0000D0A000073706565643D25730D0A000026
:1016B0004172726574206465206D6F746575722067
:1016C00073616E73206C696D69746174696F6E20EB
:1016D000646520766974657373650D0A000043685C
:1016E000616E676572206C65206D6F746465207033
:1016F0006173730D0A004D61726368652064652033
:101700006D6F746575720D0A0000536F6C64206410
:101710006520707563650D0A00006D65735F736FFA
:101720006C643D25730D0A0041544425733B0D0A3A
:10173000000041542B434D47443D310D0A004154B4
:10174000480D0A0054454C204E3D25730D0A0000FB
:10175000030EEA6E8C0EE96EEF500EE00F0E016E76
:10176000006A002EFED7012EFBD78F0E006E002ED2
:10177000FED70000EF2EF2D7120092948994080E43
:10178000016E00D00000018E10D0019E0301AB332A
:101790000001D8B08984D8A08994018C06D0019C1E
:1017A000012EF4D700D000008984030E006EE96A90
:1017B000E92EFED7002EFBD7370EE96EE92EFED7B5
:1017C00000D0000001BEE1D701BCE9D71200EF5202
:1017D0000FE0EACFAAF3E9CFA9F3EFCFABF3CDDF68
:1017E000AAC3EAFFA9C3E9FFE92AD8B4EA2AEFD7D6
:1017F00012000301AABF11D00F0E006EA939001606
:101800000A0E005C03E2300E002602D0AA51002628
:1018100000C0ABF30001B1DF03010F0EA9170A0EE0
:10182000A95D02E2300E02D0AA9FAA51A927A9C33E
:10183000ABF30001A2DF120003018E6B030EEA6E10
:10184000790EE96EF2CF90F3F29E000E000151EC9A
:1018500000F00A000900F550EE6E0009FBE10301FB
:1018600090BFF28E8F6B8F51050835E38E6B300E73
:101870008F25826F8D6B8D5112080BE3036A8D519A
:10188000790FE96E030E0320EA6EEF508E1B8D2B4D
:10189000F2D7240EAB6F000170DF030EEA6E790EF3
:1018A000E96E95DF2A0E0301AB6F000166DF8EC380
:1018B000A9F3570E0301AA6F00019BDF0D0E030170
:1018C000AB6F00015ADF0A0E0301AB6F000155DF59
:1018D00003018F2BC8D70001A6EF0CF00301786B32
:1018E00078510E0812E3036A7851A10FE96E000ED9
:1018F0000320EA6EEF6A036A7851B00FE96E000EBA
:101900000320EA6EEF6A782BEBD79288040E796F8A
:10191000FA0E8C6F00011CDF0301792FF9D7929822
:101920008998040E796FFA0E8C6F000111DF0301A4
:10193000792FF9D79288040E796FFA0E8C6F000117
:1019400007DF0301792FF9D7000176D70CEF1EF0DE
:1019500093948A94929A899A03017B6B7B5107082E
:101960002EE3070ED8807B557C6F7AC300F07C5144
:10197000016E04E0D8900032012EFCD700A003D005
:1019800093968A8602D093968A96010E8C6F0001F8
:10199000DFDEEA6A7AC3E9FFD890EF3693948A844F
:1019A000010E03018C6F0001D3DE93948A94010E23
:1019B00003018C6F0001CCDE03017B2BCFD7929A01
:1019C000898A010E8C6F0001C3DE929A899A1200F7
:1019D000178C17C07AF3BCDF040E03017A6FFA0E7E
:1019E0008C6F0001B5DE03017A2FF9D7179C17C061
:1019F0007AF30001ADDF040E03017A6FFA0E8C6FEB
:101A00000001A6DE03017A2FF9D79282040E7A6FC5
:101A1000FA0E8C6F00019CDE03017A2FF9D79292A7
:101A20008992080E7A6FFA0E8C6F000191DE030125
:101A30007A2FF9D79282140E7A6FFA0E8C6F00010A
:101A400087DE03017A2FF9D7000141EF0DF009007D
:101A5000F5520DE0F6CF7AF3F7CF7BF3F5509EA861
:101A6000FED7AD6E7AC3F6FF7BC3F7FFF0D7120047
:101A70009F970301786B78510408D8A081D00001AA
:101A8000A7D70301796B79510408D8A077D0400E0D
:101A9000F66E020EF76E0001DADF460EF66E020EEB
:101AA000F76E166AF2BE168EF29E16EC08F016BE9F
:101AB000F28E040E03017A6FFA0E8C6F000148DE7D
:101AC00003017A2FF9D700019FA755D0540EF66E67
:101AD000020EF76E166AF2BE168EF29E16EC08F033
:101AE00016BEF28E5C0EF66E020EF76EB0DFC80EFA
:101AF00003018C6F00012CDE6A0EF66E020EF76E8B
:101B0000A6DFC80E03018C6F000122DE7A0EF66E8E
:101B1000020EF76E9CDFC80E03018C6F000118DE09
:101B2000860EF66E020EF76E92DFC80E03018C6F02
:101B300000010EDE920EF66E020EF76E88DFC80E02
:101B400003018C6F000104DEA00EF66E020EF76E2C
:101B50007EDFC80E03018C6F0001FADDA80EF66E61
:101B6000020EF76E74DFC80E03018C6F0001F0DD0A
:101B7000010E016E07D00301792B85D7782B7BD717
:101B8000000E016E000133EF1EF00900F6CF88F35E
:101B9000F7CF89F3F5509EA8FED7AD6E88C3F6FF48
:101BA00089C3F7FF0301872F01D002D00001EDD7D1
:101BB0000001120003018B51016A8A5D03E28AC3AE
:101BC00000F00CD0006A080E8C6F8A3700368B51FB
:101BD000005CD8B0006E01368C2FF7D700011200E0
:101BE000200E030185A9300E866F84C300F084AFF8
:101BF00008D0001E002A00C084F32D0E866F858F4A
:101C00008581015084C38AF3640E8B6F0001D2DF9B
:101C100000C084F3300E01240301876F84C38AF36C
:101C20000A0E8B6F0001C6DF300E00240301896F9E
:101C3000300E0124886F86C300F0300E875D04E00B
:101C4000858385BF858512D086C387F3200E866F76
:101C5000300E885D04E0858185BF858307D0D8A4D8
:101C6000858104E187C388F3200E876F85B505D091
:101C700085B307D085B109D00CD086519EA8FED778
:101C8000AD6E87519EA8FED7AD6E88519EA8FED737
:101C9000AD6E89519EA8FED7AD6E000197EF0EF094
:101CA0009F9303018B6B8A6B896B886B00019FA5E7
:101CB00007D09FA703D0010E016E25D09F9521D09C
:101CC000010E03018C6F000143DD010E0301882723
:101CD000D8B0892BD8B48A2BD8B48B2B87518B5D85
:101CE00011E30BE186518A5D0DE307E18551895DC2
:101CF00009E303E18851845D05E2000E016E0001F5
:101D000002D00301D3D70001ADEF0EF01C6AA20E82
:101D1000F66E030EF76E080E0301876F000135DFC4
:101D200078C384F3180E0301856F000159D70D0E97
:101D30009EA8FED7AD6E0A0E9EA8FED7AD6E640EAD
:101D400003018C6F000104DD0301876B866B270E96
:101D5000856F100E846F0001A3D7015257E0300E3B
:101D60000301796F0C0E836F835114081AE30B0E75
:101D7000835D036A790F016E030E032203C085F3AE
:101D8000036A8351C80FE96E010E0320EA6EEFCF9C
:101D900086F385C3EAFF01C0E9FF86C3EFFF832B0B
:101DA000E3D7836B8351090827E3010E785D0A0DA1
:101DB000F3508325846F036A8351790FE96E030E14
:101DC0000320EA6EEFCF85F3F250006EF29E84C3DB
:101DD000A9FF85C3A8FFA69CA69EA6840F01550E49
:101DE000A76EAA0EA76EA682A6B2FED7A694005032
:101DF000F2120301832BD6D70B0E835D036A790F92
:101E0000E96E030E0320EA6EEF6A000112006D6AAC
:101E1000696A080E6F6E945030090301946E0201D6
:101E2000C46B166AF2BE168EF29E000181EC02F0BF
:101E300016BEF28E1200EBDF4CEF0FF0166AF2BE08
:101E4000168EF29E81EC02F016BEF28E6D6A140EB2
:101E50006F6E696A6D86010E0201C46F000137EF73
:101E60000FF0938081A004D06DB601D0E7D703D0E6
:101E70006DA601D0CCDF0201C42D0BD06DBA09D004
:101E8000686A696AA08AC00EF212110E696E020EAB
:101E9000C46F00011200CFD7E4DF0201C451020871
:101EA000D8B402D00001F8D7000162EF1EF00201A1
:101EB000C0C201F0000179EF1EF0036A03017851FE
:101EC000700FE96E0F0E0320EA6EEF520DE07851AD
:101ED000080DF3507A6B796FE96E040E7A25EA6E7D
:101EE000EFCF7BF37BAF02D0000E01D0010E016E6D
:101EF000000182EF1EF003017D51080DF350886B45
:101F0000876F020E8725016E000E8821036E01C0C7
:101F1000E9FF040E0324EA6EECCF83F3ED52EFCF1A
:101F200082F37D51080DF350886B876F010E872572
:101F3000016E000E8821036E01C0E9FF040E032428
:101F4000EA6E866BEFCF85F37D51080DF350886BF9
:101F5000E96E040E8825EA6EEFCF84F384A101D0E8
:101F6000868184A301D086838651815D08E303E1E5
:101F70008051855D04E286C381F385C380F37FC30E
:101F8000EAFF7EC3E9FF83C3E2FF82C3E1FF81C3AF
:101F900002F080C301F0015202E0022A02D0025294
:101FA00006E0E6CFEEFF012EFCD7022EFAD780C363
:101FB00001F081C302F00001E9EF0FF078C37DF377
:101FC0007AC37FF379C37EF37CC381F37BC380F351
:101FD00092D702C07CF301C07BF3166AF2BE168E64
:101FE000F29E78C3AFF3020E0301B06F0001E9EC7B
:101FF00005F016BEF28E03017BC301F07CC302F034
:102000000001A0EF1EF0166AF2BE168EF29E78C393
:10201000B4F350EC06F016BEF28E015245E0030117
:102020007851080DF350816B806F040E8027000EED
:102030008123020E8025016E000E8121036E01C0F6
:10204000E9FF040E0324EA6EECCF7FF3ED52EFCFED
:102050007EF37FC3EAFF7EC3E9FF7AC3E2FF79C361
:10206000E1FF7CC302F07BC301F0015202E0022ACF
:1020700002D0025206E0E6CFEEFF012EFCD7022E80
:10208000FAD7166AF2BE168EF29E78C3AFF37CC3FF
:10209000B1F37BC3B0F37DC3B2F3000172EC06F081
:1020A00016BEF28E015002D0000E016E1200EF52E9
:1020B00016E0EACF93F3E9CF92F3166AF2BE168EDA
:1020C000F29EEFCFAEF3EDEC07F016BEF28E93C3A7
:1020D000EAFF92C3E9FFE92AD8B4EA2AE8D7120056
:1020E000178617881792178417C07AF331DCC80E49
:1020F00003018C6F0001A8EC0BF01796179817C01E
:102100007AF326DC040E0301786FC80E8C6F000191
:10211000A8EC0BF00301782FF8D71792179417C08B
:102120007AF3000115DCB9EF21F0178617881794B0
:102130001782179017C07AF30BDCC80E03018C6F5F
:102140000001A8EC0BF01796179817C07AF300DC83
:10215000C80E03018C6F0001A8EC0BF017861788DE
:1021600017C07AF3A8EC0CF0C80E03018C6F0001C5
:10217000A8EC0BF01796179817C07AF3A8EC0CF0A0
:10218000020E0301786FC80E8C6F0001A8EC0BF0F3
:102190000301782FF8D71792179417C07AF300012C
:1021A000A8EC0CF0D6EF21F0948482B403D0010E99
:1021B000016E0ED0948082B003D0030E016E08D061
:1021C000948282B203D0020E016E02D0000E016E24
:1021D000F8EF21F00900F6CF88F3F7CF89F3166AFC
:1021E000F2BE168EF29EF5CFAEF3EDEC07F016BE02
:1021F000F28E88C3F6FF89C3F7FF0301872F01D052
:1022000002D00001E7D700011200200E030179A9D6
:10221000300E7A6F78C300F078AF08D0001E002A25
:1022200000C078F32D0E7A6F798F7981015078C3D1
:102230008AF3640E8B6F0001BDDC00C078F3300EB2
:10224000012403017B6F78C38AF30A0E8B6F0001B0
:10225000B1DC300E002403017D6F300E01247C6F51
:102260007AC300F0300E7B5D04E0798379BF798515
:1022700012D07AC37BF3200E7A6F300E7C5D04E0BF
:10228000798179BF798307D0D8A4798104E17BC3B0
:102290007CF3200E7B6F79B505D079B30FD079B17F
:1022A00019D024D0166AF2BE168EF29E7AC3AEF30F
:1022B0000001EDEC07F016BEF28E0301166AF2BEC5
:1022C000168EF29E7BC3AEF30001EDEC07F016BE56
:1022D000F28E0301166AF2BE168EF29E7CC3AEF336
:1022E0000001EDEC07F016BEF28E0301166AF2BE95
:1022F000168EF29E7DC3AEF30001EDEC07F016BE24
:10230000F28E17EF22F0030179510A0DF3CF79F322
:102310000101C76BC75109081CE3036AC7510301D8
:102320007A25E96E7B510320EA6E0101C751030152
:1023300079257E6FF2CF7FF3F29E7EC3A9FFA69C24
:10234000A69EA680A8507FBFF28EEF6E0101C72B1C
:10235000E1D7036AC75103017A25E96E7B51032057
:10236000EA6EEF6A010E016E00011200EF5210E0FA
:10237000EACF88F3E9CF87F3EF509EA8FED7AD6E82
:1023800088C3EAFF87C3E9FFE92AD8B4EA2AEED76F
:1023900012000101BE6B0A0EF66E030EF76E030EFD
:1023A0000301876F0001C5EC0DF07AC3EAFF79C322
:1023B000E9FFDCDF0F0EF66E030EF76E030E03016E
:1023C000876F0001C5EC0DF003017C6B7B6B7C51CA
:1023D0007508D8A0DDD004E17B512F08D8A0D8D053
:1023E0000101BE53D8B4C9D0140EF66E030EF76EB9
:1023F000166AF2BE168EF29E000116EC08F016BEAA
:10240000F28E0101BE6B010EEA6EC80EE96EE26A41
:102410001C0EE16EE752E6CFEEFFFCE11C0EF66EFD
:10242000030EF76E070E0301876F0001D3DE166AF5
:10243000F2BE168EF29EC8C1AEF3EDEC07F016BEEA
:10244000F28E166AF2BE168EF29EC9C1AEF3EDECA4
:1024500007F016BEF28E166AF2BE168EF29ECAC142
:10246000AEF3EDEC07F016BEF28E166AF2BE168ED3
:10247000F29ECBC1AEF3EDEC07F016BEF28E166AFB
:10248000F2BE168EF29E0D0E0301AE6F0001EDEC52
:1024900007F016BEF28E166AF2BE168EF29E0A0E75
:1024A0000301AE6F0001EDEC07F016BEF28E0101E4
:1024B000C851420803E0C951420812E12E0EF66EDF
:1024C000030EF76E166AF2BE168EF29E000116EC2F
:1024D00008F016BEF28E010E016E5AD04DD00101E9
:1024E0003C0EF66E030EF76E0F0E0301876F0001B0
:1024F00071DE166AF2BE168EF29EC8C1AEF3EDEC26
:1025000007F016BEF28E166AF2BE168EF29EC9C192
:10251000AEF3EDEC07F016BEF28E166AF2BE168E22
:10252000F29ECAC1AEF3EDEC07F016BEF28E166A4B
:10253000F2BE168EF29ECBC1AEF3EDEC07F016BEE6
:10254000F28E166AF2BE168EF29E0D0E0301AE6F6B
:102550000001EDEC07F016BEF28E166AF2BE168E82
:10256000F29E0A0E0301AE6F0001EDEC07F016BEFD
:10257000F28E000E016E0CD00101010E03018C6F72
:102580000001A8EC0BF003017B2BD8B47C2B1FD7E8
:102590000001BBEF18F00301A86B030EEA6E930E67
:1025A000E96EF2CFA9F3F29E000E000168EC00F094
:1025B0000A000900F550EE6E0009FBE10301A9BF16
:1025C000F28E300E92259C6FA76BA75112080BE379
:1025D000036AA751930FE96E030E0320EA6EEF50D2
:1025E000A81BA72BF2D7240EAB6F0001BDEC0BF09C
:1025F000030EEA6E930EE96EE7EC0BF02A0E030170
:10260000AB6F0001BDEC0BF0A8C3A9F3570E03019B
:10261000AA6F0001F9EC0BF00D0E0301AB6F000186
:10262000BDEC0BF00A0E0301AB6F0001BDEC0BF02B
:10263000DCEF13F0928680B6FED7080E006E030121
:10264000926B008E0ED0009E0CD0D89080B6D880B1
:102650009233008C06D0009C002EF7D792C301F075
:1026600016D0030EE96E000E00BE550E016E012E4F
:10267000FED7E92EF8D7340E00BE0E0E016E012EE5
:10268000FED700D000BEDFD700BCE5D7DED7000103
:1026900012000301965302E1975342E092C3E9FF0F
:1026A00093C3EAFFEFCF98F395C303F094C3E9FF18
:1026B00095C3EAFFEF50985D17E093C303F092C310
:1026C000E9FF03C0EAFFEFCF98F395C303F094C38B
:1026D000E9FF95C3EAFFEF50985D02E2FF0E01D0DB
:1026E000010E016E1FD00BD093C303F092C3E9FF1C
:1026F00093C3EAFFEF5203E1000E016E13D093C3C0
:1027000003F09251922BD8B4932B95C303F09451BC
:10271000942BD8B4952B9651D8B497079607BAD76F
:10272000000E016E00011200030196519803F3CFD1
:1027300001F0F4CF00F09903F3500026975198036D
:10274000F3500020026E00011200016A026A006A62
:10275000036A0301975102E1965118E0100E986F39
:10276000D89094379537003603369751035C02E1D1
:102770009651005C07E39651005ED8A0030697517E
:10278000035ED88001360236982FEAD70001120086
:102790000301796B7A6BDC0EF66E030EF76E166A28
:1027A000F2BE168EF29E000116EC08F016BEF28EF6
:1027B0000301926B0001EFD63DDF01C0BDF10101C5
:1027C000BD512C080CE1036A03017A512F0FE96E09
:1027D000010E0320EA6E79C3EFFF7A2B010103019A
:1027E0007951050809E3036A7951E80FE96E000E93
:1027F0000320EA6EBDC1EFFF036A7951590FE96EFC
:10280000010E0320EA6EBDC1EFFF792B036A7951F7
:10281000590FE96E010E0320EA6EEF6A0101BD5106
:102820000D08D8B402D00001C7D7000103DF01C0F2
:10283000BDF1166AF2BE168EF29E3D0E0301AE6F1A
:102840000001EDEC07F016BEF28E010EEA6E590E95
:10285000E96E2DDC03017951450803E3000E016E9A
:1028600087D2010EEA6E440EE96EF2CF92F3F29E29
:10287000000E00017FEC00F00A000900F550EE6E3A
:102880000009FBE1030192BFF28E936BE80E926F99
:10289000010E956F440E946F976B060E966F0001B4
:1028A000F8DE0152D8A461D20101C66B3051315D0E
:1028B000C65D1FE2036AC651BF0F016E000E032200
:1028C00001C092F303C093F301013051C625010FFB
:1028D000036A590FE96E010E0320EA6EEFCF94F3FD
:1028E00093C3EAFF01C0E9FF94C3EFFF0101C62BC8
:1028F000DDD7036AC651BF0F016E000E032203C06D
:1029000093F3010E01013125036A590FE96E010E9F
:102910000320EA6EEFCF94F3030193C3EAFF01C0F3
:10292000E9FF94C3EFFF010E0101C625036ABF0F43
:10293000E96E000E0320EA6EEF6AC66B3251335D1A
:10294000C65D1FE2036AC651CE0F016E000E032260
:1029500001C092F303C093F301013251C625010F68
:10296000036A590FE96E010E0320EA6EEFCF94F36C
:1029700093C3EAFF01C0E9FF94C3EFFF0101C62B37
:10298000DDD7036AC651CE0F016E000E032203C0CD
:1029900093F3010E01013325036A590FE96E010E0D
:1029A0000320EA6EEFCF94F3030193C3EAFF01C063
:1029B000E9FF94C3EFFF010E0101C625036ACE0FA4
:1029C000E96E000E0320EA6EEF6A00019F87CEC019
:1029D000B0F0CFC0B1F0200EB26FD0C0B3F0D1C014
:1029E000B4F0300EC45D0301936B926F93C397F301
:1029F000966F030E996FE80E986F000195DE02C086
:102A000093F301C092F3300EC55D0301956B946F93
:102A100095C397F3966F996B640E986F000184DEEF
:102A200002C003F001500301922702509323300E9D
:102A30000001C65D0301956B946F95C397F3966F84
:102A4000996B0A0E986F00016FDE02C003F001500F
:102A50000301922702509323300E0001C75D036AE1
:102A6000030192270350932393C397F392C396F3E2
:102A7000996B060E986F000157DE02C07FF301C00C
:102A80007EF37FC395F37EC394F3030E0301976F28
:102A9000E80E966F000159DE02C083F301C082F395
:102AA0007FC395F37EC394F3030E0301976FE80E83
:102AB000966F00014ADE00C084F3030103C085F372
:102AC000BFC0A1F0C0C0A2F0200E0001A36FC1C022
:102AD000A4F0C2C0A5F0A66F83C395F382C394F39C
:102AE0000301976B0A0E966F00012FDE300E012452
:102AF000A76F83C395F382C394F30301976B0A0E08
:102B0000966F000122DE0050300FA86F2E0EA96FC5
:102B10000301855303E1845163082DE285C395F3D6
:102B200084C394F3976B640E966F00010EDE300E33
:102B3000030101240001AA6F85C395F384C394F3B4
:102B40000301976B640E966F0001FFDD00C092F3E6
:102B5000030103C093F303C095F300C094F3976B94
:102B60000A0E966F0001F1DD300E03010124000111
:102B7000AB6F13D00301300E0001AA6F85C395F32C
:102B800084C394F30301976B0A0E966F0001DDDD99
:102B9000300E030101240001AB6FC9C0ACF0300E50
:102BA000D45D0301936B926F93C397F3966F030EFB
:102BB000996FE80E986F0001B7DD02C093F301C072
:102BC00092F3300ED55D0301956B946F95C397F327
:102BD000966F996B640E986F0001A6DD02C003F03A
:102BE00001500301922702509323300E0001D65D5D
:102BF0000301956B946F95C397F3966F996B0A0ECB
:102C0000986F000191DD02C003F00150030192278B
:102C100002509323300E0001D75D036A030192270F
:102C20000350932393C397F392C396F3996B060EC5
:102C3000986F000179DD02C081F301C080F381C388
:102C400095F380C394F3030E0301976FE80E966F1C
:102C500000017BDD02C087F301C086F381C395F3D9
:102C600080C394F3030E0301976FE80E966F000183
:102C70006CDD00C088F3030103C089F3CEC0B0F05F
:102C8000CFC0B1F0D0C0B2F0200E0001B36FD1C000
:102C9000B4F0D2C0B5F0B66F87C395F386C394F392
:102CA0000301976B0A0E966F00014FDD300E012471
:102CB000B76F87C395F386C394F30301976B0A0E2E
:102CC000966F000142DD0050300FB86F2E0EB96FC5
:102CD0000301895303E1885163082DE289C395F309
:102CE00088C394F3976B640E966F00012EDD300E4F
:102CF000030101240001BA6F89C395F388C394F3DB
:102D00000301976B640E966F00011FDD00C092F304
:102D1000030103C093F303C095F300C094F3976BD2
:102D20000A0E966F000111DD300E0301012400012F
:102D3000BB6F13D00301300E0001BA6F89C395F346
:102D400088C394F30301976B0A0E966F0001FDDCB4
:102D5000300E030101240001BB6FD9C0BCF0030198
:102D600079C301F005D004D00001000E016E03010B
:102D700000010CEF17F00201866B856B0001DD2D61
:102D800004D0010E016E1AD019D00301795102014D
:102D9000855D0AE103017A510201865D05E1000EBD
:102DA000016E00010BD00201852BD8B4862B010ED9
:102DB00003018C6F0001A8EC0BF0E1D712009EA874
:102DC000FED7AD6E12006C0EF66E120EF76E190E77
:102DD0000301876F0001EAEC10F0030EEA6E490E62
:102DE000E96E57EC10F0166AF2BE168EF29E0D0ECA
:102DF0000301AE6F0001EDEC07F016BEF28E166A0D
:102E0000F2BE168EF29E0A0E0301AE6F0001EDECCB
:102E100007F016BEF28EBCD4166AF2BE168EF29E73
:102E2000780E0301AE6F0001EDEC07F016BEF28ED6
:102E3000166AF2BE168EF29E3D0E0301AE6F0001C1
:102E4000EDEC07F016BEF28EEA6AA10EE96E57ECC1
:102E500010F08E0EF66E120EF76E050E0301876FE0
:102E60000001EAEC10F0EA6AB00EE96E57EC10F0DF
:102E7000950EF66E120EF76E030E0301876F0001BA
:102E8000EAEC10F0DD6B040E0301796FFA0E8C6F23
:102E90000001A8EC0BF00301792FF8D79A0EF66E1B
:102EA000120EF76E090E876F0001C5EC0DF0030ED0
:102EB000EA6E490EE96EB6EC11F0A50EF66E120E32
:102EC000F76E030E0301876F0001C5EC0DF00301DF
:102ED0007A6B640E796F00014EDF012C06D102017E
:102EE000F951010A00010BE0030A36E0010A61E032
:102EF000060AD8B48BD0030AD8B4B5D0BBD0AA0E7A
:102F0000F66E120EF76E27EC0DF0E60EF66E120E50
:102F1000F76E040E0301876F0001C5EC0DF0EA6A3D
:102F2000A10EE96EB6EC11F0200E9EA8FED7AD6E94
:102F3000EA6AB00EE96EB6EC11F00D0E9EA8FED74F
:102F4000AD6E0A0E9EA8FED7AD6EF20EF66E120E94
:102F5000F76E27EC0DF0BAD0340EF66E130EF76E46
:102F600027EC0DF06E0EF66E130EF76E040E0301D5
:102F7000876F0001C5EC0DF0EA6AA10EE96EB6ECB0
:102F800011F0200E9EA8FED7AD6EEA6AB00EE96E73
:102F9000B6EC11F00D0E9EA8FED7AD6E0A0E9EA8DF
:102FA000FED7AD6E7A0EF66E130EF76E27EC0DF0AF
:102FB0008DD0BC0EF66E130EF76E27EC0DF0F40EEE
:102FC000F66E130EF76E040E0301876F0001C5EC59
:102FD0000DF0EA6AA10EE96EB6EC11F0200E9EA883
:102FE000FED7AD6EEA6AB00EE96EB6EC11F00D0ECA
:102FF0009EA8FED7AD6E0A0E9EA8FED7AD6E000E3F
:10300000F66E140EF76E27EC0DF060D0420EF66EE1
:10301000140EF76E27EC0DF0820EF66E140EF76E9E
:10302000040E0301876F0001C5EC0DF0EA6AA10EE2
:10303000E96EB6EC11F0200E9EA8FED7AD6EEA6ADE
:10304000B00EE96EB6EC11F00D0E9EA8FED7AD6E77
:103050000A0E9EA8FED7AD6E8E0EF66E140EF76E9B
:1030600027EC0DF033D0D00EF66E140EF76E27EC71
:103070000DF02CD01C0EF66E150EF76E27EC0DF031
:10308000460EF66E150EF76E040E0301876F0001F3
:10309000C5EC0DF0EA6AA10EE96EB6EC11F0200E57
:1030A0009EA8FED7AD6EEA6AB00EE96EB6EC11F0DE
:1030B0000D0E9EA8FED7AD6E0A0E9EA8FED7AD6E71
:1030C000520EF66E150EF76E27EC0DF0080E03018A
:1030D000796FFA0E8C6F0001A8EC0BF00301792FC9
:1030E000F8D71A0E00016BDEDD6B120019A005D0B7
:1030F000178A17C07AF3A8EC0CF00301786B7851AB
:10310000010873E378C379F3020E7B6F8F0E7A6F39
:10311000000183EC11F0940EF66E150EF76E0A0E98
:103120000301876F0001EAEC10F0020EEA6E8F0EC9
:10313000E96E57EC10F0166AF2BE168EF29E0D0E76
:103140000301AE6F0001EDEC07F016BEF28E166AB9
:10315000F2BE168EF29E0A0E0301AE6F0001EDEC78
:1031600007F016BEF28E020E03017A6F8F0E796F92
:103170000001C9EF11F0015211E0030EEA6E490E91
:10318000E96E020EE26E8F0EE16EE752E6CFEEFFC1
:10319000FCE119DE010E016E28D01AD0A40EF66EE5
:1031A000150EF76E070E0301876F0001EAEC10F0B1
:1031B000020EEA6E8F0EE96E57EC10F0AD0EF66E51
:1031C000150EF76E110E0301876F0001EAEC10F087
:1031D000080E0301796FFA0E8C6F0001A8EC0BF05A
:1031E0000301792FF8D7782B8AD7000166EF22F0F8
:1031F000EACF82F3E9CF81F303017BAF08D0818F5F
:1032000081A9812B7A1F7B1F7A2BD8B47B2B7B392A
:10321000F0097D6F7D27E20F7E6F320F806F7B514B
:103220000F0B7E277E278027E90F7F6F7F277F2761
:103230007A390F0B7F2780277F378037801F8037B1
:103240007A510F0B80277D37070E7C6F0A0E7F07A0
:103250008027FDE37E077F27FDE37D077E27FDE3D3
:103260007C077D27FDE3030EEA6E7C0EE96E070EF8
:103270008115819DE906811507E181B9E92A81B9A6
:1032800003D0200E006E1CD0E926800EE95CD8B475
:10329000818DEF50006E08E181BD06D081B924D048
:1032A00081B702D0200E0BD081AF06D02D0E006E5C
:1032B000ED50819D819F04D081878199300E002639
:1032C000EACF7BF3E9CF7AF3166AF2BE168EF29E4E
:1032D00000C0AEF30001EDEC07F016BEF28E7BC32A
:1032E000EAFF7AC3E9FF0301EE5081ADCED70001BA
:1032F00020EF1AF0A09D0201886B876B0301786BA9
:103300000201A6510301785DD8B07CD0036A7851E0
:10331000C80FE96E010E0320EA6EEF503A0803E190
:103320000001A08D0301036A7851C80FE96E010EF8
:103330000320EA6EEF502F0858E2036A7851C80F55
:10334000E96E010E0320EA6EEF5039084EE30001EA
:10335000A0BD02D0030149D0036A03017851C80F10
:10336000E96E010E0320EA6EEFCF7AF3166AF2BE21
:10337000168EF29E2D0EAE6F0001EDEC07F016BE1C
:10338000F28E166AF2BE168EF29E7AC3AEF3EDECA2
:1033900007F016BEF28E166AF2BE168EF29E2D0E43
:1033A0000301AE6F0001EDEC07F016BEF28E88C28D
:1033B00097F387C296F30301996B0A0E986F000189
:1033C00094EC13F0036A03017851C80FE96E010E03
:1033D0000320EA6E300EEF5C01240201876F000EBD
:1033E000030102200201886F0301036A7851C80FAC
:1033F000E96E010E0320EA6EEF502E08D8B402D019
:10340000782B7ED7020187C201F088C202F023D058
:10341000010EEA6EC80EE96E000157EC10F0CA0EFC
:10342000F66E030EF76E080E0301876F0001EAECDB
:1034300010F0100EE96E88C27BF387C27AF3D8D6FB
:10344000D50EF66E030EF76E050E0301876F0001B1
:10345000EAEC10F0020100011CEF23F03C0E030126
:10346000806F816F00019F939FA585D003017F6BC3
:103470000001DF5103017F5DD8B07AD0036A7F512C
:10348000280FE96E020E0320EA6EEF502B0824E1AC
:10349000020E7F25036A280FE96E020E0320EA6EF2
:1034A000EF504D0819E1030E7F25036A280FE96EDE
:1034B000020E0320EA6EEF5047080EE1040E7F254E
:1034C000036A280FE96E020E0320EA6EEF505208DD
:1034D00003E10001A08303010001A0A346D0036A19
:1034E00003017F51280FE96E020E0320EA6EEF50B0
:1034F0002C0806E1060E7F25806F0E0E7F25816F5A
:10350000010E805D7F5D1AE019E380517F5D010F40
:10351000036A7825016E7951032203C083F3036A9D
:103520007F51280FE96E020E0320EA6EEFCF84F37D
:1035300083C3EAFF01C0E9FF84C3EFFF7F51815DD0
:1035400013E278C3E9FF79C3EAFF300EEF6E8051D2
:103550007F5D010F036A7825E96E79510320EA6ED9
:10356000EF6A010E016E22D0000103017F2B80D78C
:1035700000019F951BD0010E03018C6F0001A8EC88
:103580000BF0010E03017A27D8B07B2BD8B47C2B2B
:10359000D8B47D2B7D530AE17C5308E17B5112089E
:1035A00005E2FF0A03E17A51880800E3000194EF85
:1035B00023F0020E03017A6F036A7A51080FE96E55
:1035C000020E0320EA6EEF5023081DE07A51110825
:1035D0001AE3020E7A5D036A7825016E795103229F
:1035E00003C07CF3036A7A51080FE96E020E0320D0
:1035F000EA6EEFCF7DF37CC3EAFF01C0E9FF7DC334
:10360000EFFF7A2BD9D7020E7A5D0001E06F000E32
:10361000016E26EF24F0F2CF7BF3F29E280EA96E06
:10362000A69CA69EA680A85003017BBFF28E786F51
:1036300078510001E05D03E0000E016E28D0030127
:10364000796B7851795D21E2280E7925010F7B6F26
:10365000F2CF7CF3F29E7BC3A9FFA69CA69EA68018
:10366000A8507CBFF28E7A6F036A7951490FE96ED8
:10367000010E0320EA6E7A51EF5C05E0000E016E48
:10368000000105D00301792BDCD7010E016E00018A
:1036900028EF24F0928680B6FED7080E006E030154
:1036A0007E6B008E0ED0009E0CD0D89080B6D88055
:1036B0007E33008C06D0009C002EF7D77EC301F02D
:1036C00016D0030EE96E000E00BE550E016E012EDF
:1036D000FED7E92EF8D7340E00BE0E0E016E012E75
:1036E000FED700D000BEDFD700BCE5D7DED7000193
:1036F000120003017C6B0101C76BBD6B436B0001C2
:10370000C9DF01C0BDF10101BD511408F8E300019A
:10371000C1DF01C0BDF10101BD5114081FE2036A00
:10372000C751EF0FE96E000E0320EA6EBDC1EFFF37
:10373000C75105080AE3036AC751E80FE96E000E96
:103740000320EA6EBDC1EFFF08D0036AC751E80F3E
:10375000E96E000E0320EA6EEF6AC72BBD510D081B
:10376000D6E1000197DF01C0BDF103017D6B0101CE
:10377000C75103017D5D18E2036A7D51EF0FE96EC9
:10378000000E0320EA6EEF502C080CE1036A0101E1
:1037900043512F0FE96E010E0320EA6E7DC3EFFF48
:1037A000432B03017D2BE3D70001EB515608D8A42E
:1037B0007AD0EC515408D8A476D0ED51470873E183
:1037C000560EF66E030EF76E166AF2BE168EF29E57
:1037D00016EC08F016BEF28E0101C66B2F51305D5B
:1037E000FF0FC65D20E2036AC65103017A25016E10
:1037F0007B51032201C07EF303C07FF301012F51EF
:10380000C625010F036AEF0FE96E000E0320EA6E72
:10381000EFCF80F37FC3EAFF01C0E9FF80C3EFFF72
:103820000101C62BDBD7036AC65103017A25E96E75
:103830007B510320EA6EEF6A0101C66B3551365D9C
:10384000FF0FC65D20E2036AC65103017825016EB1
:103850007951032201C07EF303C07FF3010135518A
:10386000C625010F036AEF0FE96E000E0320EA6E12
:10387000EFCF80F37FC3EAFF01C0E9FF80C3EFFF12
:103880000101C62BDBD7036AC65103017825E96E17
:1038900079510320EA6EEF6A010E7C6F0101C7C106
:1038A00001F006D0000103017C53D8B424D70101F4
:1038B0000001120003017B6B7A6B7A6B7A5102086C
:1038C00027E3036A7A517825E96E79510320EA6E7D
:1038D000EF5030081AE2036A7A517825E96E79517F
:1038E0000320EA6EEF50380810E37B510A0DF3CF46
:1038F0007CF3036A7A517825E96E79510320EA6EE8
:10390000300EEF5C7C257B6F01D002D07A2BD6D7AE
:103910007BC301F00001120003017A6BF2CF7BF34D
:10392000F29E280EA96EA69CA69EA680A8507BBFDC
:10393000F28E796F030E7925786F036A7851080F3C
:10394000E96E020E0320EA6EEF5023082BE0785157
:103950001F0828E3280E7825FE0FD88079557B6F45
:10396000036A7851080FE96E020E0320EA6EEFCF6A
:103970007CF3F250006EF29E7BC3A9FF7CC3A8FFCC
:10398000A69CA69EA6840F01550EA76EAA0EA76E32
:10399000A682A6B2FED7A6940050F21203017A2B9B
:1039A000782BCBD7F250006EF29E280EA96E7AC308
:1039B000A8FFA69CA69EA6840F01550EA76EAA0E70
:1039C000A76EA682A6B2FED7A6940050F2120001FE
:1039D0006AEF25F003017A6BF2CF7BF3F29E320E91
:1039E000A96EA69CA69EA680A8507BBFF28E7A5D8B
:1039F00018E2036A7A517825E96E79510320EA6E5C
:103A0000330E7A257D6FF2CF7EF3F29E7DC3A9FF40
:103A1000A69CA69EA680A8507EBFF28EEF6E7A2B43
:103A2000DBD7000126EF25F09F9303017D6B7C6BB4
:103A30007B6B7A6B00019FA531D00101C9512B0826
:103A40002AE103017E6B7E5109081CE3036A7E5163
:103A50007825016E7951032201C07FF303C080F302
:103A6000090E7E25036AC80FE96E010E0320EA6E77
:103A7000EFCF81F380C3EAFF01C0E9FF81C3EFFF0D
:103A80007E2BE1D7036A7E517825E96E79510320B8
:103A9000EA6EEF6A010100019F951FD0010E03013C
:103AA0008C6F0001A8EC0BF0010E03017A27D8B04F
:103AB0007B2BD8B47C2BD8B47D2B7D530AE17C536F
:103AC00008E17B51120808E2FF0A03E17A518808F5
:103AD00003E2000E016E03D00001ADD70301000127
:103AE000E6EF25F0F86AD09E078E93908A90929424
:103AF0008984B886E10EAF6E040EB06EA60EAC6E71
:103B0000900EAB6E929489849C6B9D6B9E6BDD6B6B
:103B1000DE6BE16B280EE36F0101BD6BC56BC76BFC
:103B20000201706B866B856B8A6B640E896F8E6B7E
:103B30008D6B8C6B8B6BB886E10EAF6E040EB06E26
:103B4000A60EAC6E900EAB6EF86B0301536B556B0B
:103B5000706B756BC150C00B0F09C16E070EB46E50
:103B600019D002001A00002802CF762E312E320022
:103B7000414C5F3534380020454D4E5420323030B2
:103B800039007777772E656D6E742D647A2E636FAA
:103B90006D000000000EF86E3B0EF76E620EF66EC2
:103BA0000900F550006E000A13E00900F550016E9F
:103BB000E8BE05D00F0BEA6E0900F5CFE9FF01BCA6
:103BC000090001AC0900F5CFEEFF004EE9D7F9D7A7
:103BD000F86ADB0E926EF30E936EBF0E946E070EB4
:103BE000B46E9250926E270E006E002EFED700D05B
:103BF000B450A19C9D8AC00EF212C00EF66E150E36
:103C0000F76E166AF2BE168EF29E000116EC08F0F0
:103C100016BEF28E6EEF0CF0178A178017C07AF37B
:103C2000A8EC0CF0040E0301786FFA0E8C6F000103
:103C3000A8EC0BF00301782FF8D7179017C07AF390
:103C40000001A8EC0CF0040E0301786FFA0E8C6FE3
:103C50000001A8EC0BF00301782FF8D781B004D055
:103C6000000138EF0DF00301F2CF78F3F29EA9685E
:103C7000A69CA69EA680A85078BFF28E766F762D61
:103C800018D0010E786F000186EC0EF0020E0301D1
:103C9000786F000186EC0EF0030E0301786F0001CF
:103CA00086EC0EF0040E0301786F000186EC0EF036
:103CB000030181A00CD0F29CF29EF2BEFDD7000160
:103CC0004BEF0FF031EC0FF0C00EF2120301188E23
:103CD000D20EF66E150EF76E166AF2BE168EF29EB4
:103CE000000116EC08F016BEF28E81A039D357EF12
:103CF0000FF00152D8B430D3010E0301786F0001E8
:103D00005DEF0FF00152D8B427D30301716B7151ED
:103D10001F080AE3036A7151FE0FE96E020E0320C9
:103D2000EA6EEF6A712BF3D7010E786F020E7A6F8D
:103D3000FE0E796F7C6B200E7B6F0001DEEF0FF0C3
:103D4000010E0201FE5DE70FD8B007D3190F000185
:103D500041EF26F0310E0301005D726F72510A0DC2
:103D6000F3CF73F3746B745109083CE3036A745125
:103D70008F0F016E020E032203C079F3040E742527
:103D8000036AFE0FE96E020E0320EA6EEFCF7AF3AC
:103D900079C3EAFF01C0E9FF7AC3EFFF74517325CD
:103DA000786F036A74518F0FE96E020E0320EA6E7A
:103DB000EFCF79F3F250006EF29E78C3A9FF79C37A
:103DC000A8FFA69CA69EA6840F01550EA76EAA0E5C
:103DD000A76EA682A6B2FED7A6940050F2120301E7
:103DE000742BC1D70201B9D20001310E0301005D6D
:103DF000726F7251200DF350280F726F040E746FA2
:103E000074511F0825E3040E745D7225786F036AF0
:103E10007451FE0FE96E020E0320EA6EEFCF79F3C4
:103E2000F250006EF29E78C3A9FF79C3A8FFA69C4A
:103E3000A69EA6840F01550EA76EAA0EA76EA68297
:103E4000A6B2FED7A6940050F2120301742BD8D765
:103E5000020183D20001020180D200010301746BD0
:103E60007451090815E3036A7451DC0FE96E020E00
:103E70000320EA6EF2CF7AF3F29E74C3A9FFA69CE8
:103E8000A69EA680A8507ABFF28EEF6E742BE8D75C
:103E9000010E786F020E7A6FDC0E796F7C6B0A0E62
:103EA0007B6F020E7D6F000103EC10F0020155D212
:103EB00000010301746B7451090818E3036A74511B
:103EC000DC0FE96E020E0320EA6E0A0E74257A6F8B
:103ED000F2CF7BF3F29E7AC3A9FFA69CA69EA68092
:103EE000A8507BBFF28EEF6E742BE5D7010E786F72
:103EF000020E7A6FDC0E796F7C6B0A0E7B6F020EFE
:103F00007D6F000103EC10F0020127D200010301D4
:103F1000746B7451090818E3036A7451DC0FE96E7D
:103F2000020E0320EA6E140E74257A6FF2CF7BF333
:103F3000F29E7AC3A9FFA69CA69EA680A8507BBF2E
:103F4000F28EEF6E742BE5D7010E786F020E7A6F4A
:103F5000DC0E796F7C6B0A0E7B6F020E7D6F0001A9
:103F600003EC10F00201F9D100010301746B7451EC
:103F7000090818E3036A7451DC0FE96E020E03208E
:103F8000EA6E1E0E74257A6FF2CF7BF3F29E7AC32F
:103F9000A9FFA69CA69EA680A8507BBFF28EEF6EBE
:103FA000742BE5D7010E786F020E7A6FDC0E796FF5
:103FB0007C6B0A0E7B6F020E7D6F000103EC10F02C
:103FC0000201CBD10001020EEA6EFE0EE96E57EC43
:103FD00010F0166AF2BE168EF29E0D0E0301AE6F41
:103FE0000001EDEC07F016BEF28E166AF2BE168ED8
:103FF000F29E0A0E0301AE6F0001EDEC07F016BE53
:10400000F28E0201AAD10001010E0301786F7A6FCE
:10401000C80E796F7C6B54C37BF3020E7D6F000179
:1040200003EC10F0020199D10001010E0301786F39
:10403000020E7A6FCF0E796F7C6B060E7B6F020ECD
:104040007D6F000103EC10F0020187D10001010E29
:104050000301786F020E7A6FD50E796F7C6B060EB6
:104060007B6F020E7D6F000103EC10F0020175D131
:1040700000010201FF51300815E1F250006EF29E7E
:10408000A968A86AA69CA69EA6840F01550EA76ED5
:10409000AA0EA76EA682A6B2FED7A6940050F21270
:1040A00015D00201F250006EF29EA968010EA86EB2
:1040B000A69CA69EA6840F01550EA76EAA0EA76EFB
:1040C000A682A6B2FED7A6940050F212020145D1F4
:1040D00000010201FF51300816E1F250006EF29E1D
:1040E000FE0EA96EA86AA69CA69EA6840F01550E78
:1040F000A76EAA0EA76EA682A6B2FED7A6940050FF
:10410000F21216D00201F250006EF29EFE0EA96E5F
:10411000010EA86EA69CA69EA6840F01550EA76E42
:10412000AA0EA76EA682A6B2FED7A6940050F212DF
:10413000020113D100010201FF51300816E1F250D3
:10414000006EF29EFD0EA96EA86AA69CA69EA6848D
:104150000F01550EA76EAA0EA76EA682A6B2FED7B5
:10416000A6940050F21216D00201F250006EF29E98
:10417000FD0EA96E010EA86EA69CA69EA6840F0138
:10418000550EA76EAA0EA76EA682A6B2FED7A6945B
:104190000050F2120201E1D00001FFC2E0F0F25043
:1041A000006EF29E320EA96EE0C0A8FFA69CA69EED
:1041B000A6840F01550EA76EAA0EA76EA682A6B200
:1041C000FED7A6940050F2120101C76B0001E05126
:1041D0000101C75D28E2320EC725010F0301786F88
:1041E000020E0101C725036AFE0FE96E020E0320CD
:1041F000EA6EEFCF79F3F250006EF29E78C3A9FF1A
:1042000079C3A8FFA69CA69EA6840F01550EA76E93
:10421000AA0EA76EA682A6B2FED7A6940050F212EE
:104220000101C72BD3D7020198D00001F250006ED4
:10423000F29EFC0EA96EFFC2A8FFA69CA69EA684B5
:104240000F01550EA76EAA0EA76EA682A6B2FED7C4
:10425000A6940050F212020180D00001FFC2E0F0EB
:10426000F250006EF29E280EA96EE0C0A8FFA69C38
:10427000A69EA6840F01550EA76EAA0EA76EA68253
:10428000A6B2FED7A6940050F2120101C76B00013E
:10429000E0510101C75D27E2290EC7250301786FB0
:1042A000020E0101C725036AFE0FE96E020E03200C
:1042B000EA6EEFCF79F3F250006EF29E78C3A9FF59
:1042C00079C3A8FFA69CA69EA6840F01550EA76ED3
:1042D000AA0EA76EA682A6B2FED7A6940050F2122E
:1042E0000101C72BD4D7020138D00001F2CF78F3F7
:1042F000F29E460EA96EA69CA69EA680A85003011B
:1043000078BFF28E0001E36F010E0301786F7A6BC4
:10431000E3C079F37C6B7B6F020E7D6F000103ECD1
:1043200010F002011AD00001F250006EF29E460E0B
:10433000A96EFFC2A8FFA69CA69EA6840F01550EDB
:10434000A76EAA0EA76EA682A6B2FED7A6940050AC
:10435000F212020102D0000102013DEF26F000013D
:1043600081AE16D018B213D018BA11D0188A70EFD7
:1043700010F018821890DA0EF66E150EF76E166AA7
:10438000F2BE168EF29E16EC08F016BEF28E01D02A
:10439000189281A81BD018B618D018AA16D018B039
:1043A00013D0189A1890188E95EF10F01886E20E18
:1043B000F66E150EF76E166AF2BE168EF29E16ECAB
:1043C00008F016BEF28E01D0189001D0189681AC7C
:1043D00004D018B402D0188C1884189481AA05D07F
:1043E00018B803D0189C189018881898D4EF10F0BB
:1043F00001C055F30301555340E0555103083DE317
:1044000018B03BD055C3F9F255C353F3EA0EF66E1C
:10441000150EF76E050E876F0001EAEC10F053C31E
:1044200078F3180E0301796F000105EF11F0166A99
:10443000F2BE168EF29E0D0E0301AE6F0001EDEC82
:1044400007F016BEF28E166AF2BE168EF29E0A0EA5
:104450000301AE6F0001EDEC07F016BEF28E18AA54
:1044600006D018800201FD6BFC6B06D0000118908D
:10447000188E179817960201030118AA55D0020149
:10448000FA2BD8B4FB2BFB51E9084DE2FF0A03E1FC
:10449000FA51600848E218AE1BD018AA19D018A02B
:1044A00017D0F40EF66E150EF76E166AF2BE168E63
:1044B000F29E000116EC08F016BEF28E17881786E1
:1044C00017C07AF3A8EC0CF076EF18F0189E0201F2
:1044D000FB6BFA6B17A002D0179001D01780FC2B52
:1044E000D8B4FD2B18A017D0FC2BD8B4FD2BFD5150
:1044F000020806E2FF0A03E1FC51200801E21890DD
:1045000018AC02D0178801D0179817A602D01796BA
:1045100001D0178602D01798179617C07AF30001BA
:10452000A8EC0CF00201030100019FAFBAD0A0ABD0
:1045300081D0060EF66E160EF76E166AF2BE168E55
:10454000F29E16EC08F016BEF28E120EF66E160EE5
:10455000F76E27EC0DF00301776B7751090810E334
:10456000036A77519A0FE96E020E0320EA6EEFCFCD
:1045700078F378510001DFEC16F00301772BEDD7CB
:10458000220E9EA8FED7AD6E0D0E9EA8FED7AD6E74
:10459000030E7A6FE80E796F0001BBEC16F0012C68
:1045A0002CD00C0E0301776F0201A6510301775D39
:1045B00010E2036A7751C80FE96E010E0320EA6E1C
:1045C000EFCF78F378510001DFEC16F00301772B81
:1045D000EBD70D0E0001DFEC16F00A0EDFEC16F043
:1045E0001C0EF66E160EF76E166AF2BE168EF29E50
:1045F00016EC08F016BEF28E0CD0260EF66E160ED5
:10460000F76E166AF2BE168EF29E16EC08F016BE13
:10461000F28E080E0301786FFA0E8C6F0001A8EC81
:104620000BF00301782FF8D71A0E0001DFEC16F01B
:10463000A09B35D07AEF19F002C088F201C087F252
:10464000020188518A5D27E303E18951875D23E2F6
:104650000001A0BF04D00101C5531CE00001060EFB
:104660000301536F796B030E7B6F3F0E7A6F00016E
:1046700083EC11F0030EEA6E490EE96E030EE26E52
:104680003F0EE16EE752E6CFEEFFFCE1E3EC16F001
:10469000A09F010103D00001A08F01010001A091A2
:1046A0009F9FDE2D34D09FA932D0A095178017C0D0
:1046B0007AF3A8EC0CF0020EEA6E6C0EE96E020EB4
:1046C000E26E680EE16EE752E6CFEEFFFCE1300EDF
:1046D000F66E160EF76E27EC0DF03C0EF66E160E0B
:1046E000F76E166AF2BE168EF29E16EC08F016BE33
:1046F000F28E040E0301786FFA0E8C6F0001A8ECA5
:104700000BF00301782FF8D700019F99A097DE5195
:1047100002085BE19FA959D0020E0301796F9A0E3E
:10472000786F00012EEF1AF00201F86BF8510308C0
:1047300022E3F8C279F3030E03017B6F3F0E7A6F19
:10474000000183EC11F0030E0301936F3F0E926F93
:10475000020E956F9A0E946F976B0A0E966F00017A
:1047600049EC13F0015204E19F8B020104D00001D7
:104770000201F82BDBD7460EF66E160EF76E0A0E08
:104780000301876F0001EAEC10F0020EEA6E9A0E48
:10479000E96E57EC10F0166AF2BE168EF29E0A0E03
:1047A0000301AE6F0001EDEC07F016BEF28E166A43
:1047B000F2BE168EF29E0D0E0301AE6F0001EDECFF
:1047C00007F016BEF28E9F99A087DE510308D8A489
:1047D0008FD1020109512A08D8B402D0000188D132
:1047E0000001A0B701D098D7560EF66E160EF76EE0
:1047F000080E0301876F0001EAEC10F0020EEA6E6A
:10480000080EE96E57EC10F0166AF2BE168EF29E94
:104810000A0E0301AE6F0001EDEC07F016BEF28E3A
:10482000166AF2BE168EF29E0D0E0301AE6F0001E7
:10483000EDEC07F016BEF28E9FAB4CD1010E0301DA
:10484000796F490E786F0001D9EF1AF00BEF1BF06A
:10485000A09901B0A089A0A90CD0640EF66E160E26
:10486000F76E166AF2BE168EF29E16EC08F016BEB1
:10487000F28EA0A92FD102010851410A000115E0D2
:10488000200A13E0220AD8B4ACD0200AD8B4A9D0A8
:104890002E0AD8B4B5D0200AD8B4B2D03E0AD8B4C3
:1048A000C1D0200AD8B4BED015D1F2CF78F3F29E91
:1048B000460EA96EA69CA69EA680A850030178BFAE
:1048C000F28E0001E36FE35163086BE3020E030114
:1048D000796FA70E786F020E7B6FAC0E7A6F0001B6
:1048E00079EC1BF0020E0301796FA70E786F0001BF
:1048F0005AEC1CF001C0BFF1E3510101BF5D1AE2A7
:10490000179A17C07AF30001A8EC0CF0050E03010A
:10491000536F030EEA6E490EE96E020EE26E9A0EB6
:10492000E16EE752E6CFEEFFFCE10001E3EC16F0AA
:1049300003D0010100019F8D760EF66E160EF76E04
:10494000166AF2BE168EF29E16EC08F016BEF28EB5
:10495000A40EF66E160EF76E060E0301876F0001A9
:10496000EAEC10F0020EEA6EA70EE96E57EC10F0BA
:10497000166AF2BE168EF29E0D0E0301AE6F000196
:10498000EDEC07F016BEF28E166AF2BE168EF29E9F
:104990000A0E0301AE6F0001EDEC07F016BEF28EB9
:1049A0001FD0B00EF66E160EF76E166AF2BE168E99
:1049B000F29E16EC08F016BEF28E179A17C07AF324
:1049C000A8EC0CF0030EEA6E490EE96E030EE26EDF
:1049D0003F0EE16EE752E6CFEEFFFCE1E3EC16F0AE
:1049E00079D0DE0EF66E160EF76E166AF2BE168ED1
:1049F000F29E16EC08F016BEF28E8CEF1CF06AD018
:104A0000F60EF66E160EF76E166AF2BE168EF29E51
:104A100016EC08F016BEF28E178A17C07AF3A8ECCF
:104A20000CF058D00A0EF66E170EF76E166AF2BE2C
:104A3000168EF29E16EC08F016BEF28E010E0301E1
:104A4000796FC00E786F0001EAEF1CF01A0EF66E57
:104A5000170EF76E090E0301876F0001EAEC10F0E4
:104A6000010EEA6EC00EE96E57EC10F0166AF2BE47
:104A7000168EF29E0D0E0301AE6F0001EDEC07F0F5
:104A800016BEF28E166AF2BE168EF29E0A0E030152
:104A9000AE6F0001EDEC07F016BEF28E280EF66E3A
:104AA000170EF76E030E0301876F0001C5EC0DF0C2
:104AB000010EEA6EC00EE96EB6EC11F02D0EF66E28
:104AC000170EF76E030E0301876F0001C5EC0DF0A2
:104AD000A081A08B320EF66E170EF76E27EC0DF04C
:104AE000179017C07AF3A8EC0CF0DE6B9F999F9B90
:104AF0009FAD45D0020E0301796FA70E786F020EAD
:104B00007B6FAC0E7A6F000179EC1BF0020E030193
:104B1000796FA70E786F00015AEC1CF001C0BFF14D
:104B2000E3510101BF5D2CE2179A17C07AF300012F
:104B3000A8EC0CF0050E0301536F0201F86BF8515D
:104B400003081BE3F8C279F3030E03017B6F3F0EEA
:104B50007A6F000183EC11F0030EEA6E490EE96EE4
:104B6000030EE26E3F0EE16EE752E6CFEEFFFCE190
:104B7000E3EC16F00201F82BE2D700019F9D010142
:104B800081A27BD00001E16B3E0EF66E170EF76E30
:104B900027EC0DF0178017C07AF3A8EC0CF0020197
:104BA000F86BF851030862E3F8C279F3030E0301CE
:104BB0007B6F3F0E7A6F000183EC11F0020E030150
:104BC000796F9A0E786F000114EF1DF0440EF66EA7
:104BD000170EF76E060E0301876F0001EAEC10F066
:104BE000020EEA6E9A0EE96E57EC10F0166AF2BEEB
:104BF000168EF29E0D0E0301AE6F0001EDEC07F074
:104C000016BEF28E166AF2BE168EF29E0A0E0301D0
:104C1000AE6F0001EDEC07F016BEF28E030E03013D
:104C2000936F3F0E926F020E956F9A0E946F976B73
:104C30000A0E966F000149EC13F0015214E1030EC5
:104C4000EA6E490EE96E020EE26E9A0EE16EE752CE
:104C5000E6CFEEFFFCE10201F96B0001E3EC16F098
:104C6000020104D000010201F82B9BD7179017C056
:104C70007AF30001A8EC0CF00101000175EF1EF0C1
:104C80000300F2CF0DF0F29EE824F76AF736A70F83
:104C9000F66E4C0EF7220A00F550FA6E0800F55039
:104CA0000DBEF28EF96E543DEA3DC63F5643563E68
:104CB00008402A4072402C429A41D2405C42364120
:104CC0004E40564356435643564356435C3EB23ECF
:084CD0000E3F6A3FEC4228434D
:0200000400F00A
:1000000030303030303030303030303030303030F0
:1000100030303030303030303030303030303030E0
:0D002000303030303030303004303030308F
:06003200052A30303023E6
:020000040030CA
:0E00000024CE3E1E000781000FC00FE00F400F
:00000001FF
;PIC18F2550
;CRC=ECB3  CREATED="12-mars-16 21:00"
